:020000040000fa
:080000000002040000000000f2
:020000040000fa
:100008008a030000d2020000f80200001e0300006c
:10001800440300008a0300008a0300008a030000ea
:100028008a0300008a0300008a0300007e5700004c
:100038008a0300008a0300008a0300008a03000084
:100048008a0300008a0300008a03000002450000ba
:10005800a44400008a0300008a0300008a03000009
:100068008a0300008a0300008a0300008a03000054
:100078008a0300008a0300008a0300008a03000044
:100088008a0300008a0300008a0300008a03000034
:100098008a0300008a03000070410000124100003a
:1000a8008a0300008a0300008a0300008a03000014
:1000b8008a0300008a0300008a0300008a03000004
:1000c8008a0300008a0300008a0300008a030000f4
:1000d8008a0300008a0300008a0300008a030000e4
:1000e8008a0300008a030000f43700008a03000036
:1000f8008a0300008a0300008a0300008a030000c4
:100108008a0300008a0300008a0300008a030000b3
:100118008a0300008a0300008a0300008a030000a3
:100128008a0300008a0300008a0300008a03000093
:100138008a0300008a0300008a0300008a03000083
:100148008a0300008a0300008a0300008a03000073
:100158008a0300008a0300008a0300008a03000063
:100168008a0300008a030000fe4b0000a04b000039
:100178008a0300008a0300008a0300008a03000043
:1001880080480000224800008a0300008a0300001b
:100198008a0300008a0300008a0300008a03000023
:1001a8008a0300008a0300008a0300008a03000013
:1001b8008a0300008a0300008a0300008a03000003
:1001c8008a0300008a0300008a0300008a030000f3
:1001d8008a0300008a0300008a0300008a030000e3
:1001e8008a0300008a0300008a0300008a030000d3
:0801f8008a0300008a030000e5
:020000040000fa
:100208008a0300006a030000720300007a030000fa
:10021800820300008a0300008a0300008a030000aa
:100228008a0300008a0300008a0300007e5700004a
:100238008a0300008a0300008a0300008a03000082
:100248008a0300008a0300008a03000002450000b8
:10025800a44400008a0300008a0300008a03000007
:100268008a0300008a0300008a0300008a03000052
:100278008a0300008a0300008a0300008a03000042
:100288008a0300008a0300008a0300008a03000032
:100298008a0300008a030000704100001241000038
:1002a8008a0300008a0300008a0300008a03000012
:1002b8008a0300008a0300008a0300008a03000002
:1002c8008a0300008a0300008a0300008a030000f2
:1002d8008a0300008a0300008a0300008a030000e2
:1002e8008a0300008a030000f43700008a03000034
:1002f8008a0300008a0300008a0300008a030000c2
:100308008a0300008a0300008a0300008a030000b1
:100318008a0300008a0300008a0300008a030000a1
:100328008a0300008a0300008a0300008a03000091
:100338008a0300008a0300008a0300008a03000081
:100348008a0300008a0300008a0300008a03000071
:100358008a0300008a0300008a0300008a03000061
:100368008a0300008a030000fe4b0000a04b000037
:100378008a0300008a0300008a0300008a03000041
:1003880080480000224800008a0300008a03000019
:100398008a0300008a0300008a0300008a03000021
:1003a8008a0300008a0300008a0300008a03000011
:1003b8008a0300008a0300008a0300008a03000001
:1003c8008a0300008a0300008a0300008a030000f1
:1003d8008a0300008a0300008a0300008a030000e1
:1003e8008a0300008a0300008a0300008a030000d1
:0803f8008a0300008a030000e3
:020000040000fa
:10040000af1721000e7f22000e01880000000000bf
:10041000000020000000e000020032000001200087
:10042000200288000c000700201d2500010020008c
:100430000f000700000020000000e0000200320072
:100440000000020000000000ca5f0200000000007f
:100450000040da000000fe00604420000000e000e0
:1004600002003200002020009001880000000600f9
:10047000a1028800800078000000eb001a0037001d
:10048000e280400054a0b4009101ba00e280400034
:1004900054a0b4009102ba00e280400054a0b4001d
:1004a0000002eb00472bde00f507b200a601880032
:1004b000602ce10008003a000049eb000201e8006e
:1004c000020039003420ec0002f0a0008301e900b2
:1004d000f9ff3e00040037006128e100010032000e
:1004e0000082eb00040007001101ba000200e000e6
:1004f000e3ff3a000000060004d0a300e20f490029
:100500001c003900810278003549ba000201e80078
:10051000020039003420ec0002f0a0008301e90061
:100520000f0032002549ba000201e800020039003c
:100530003420ec0002f0a0008301e9000800320042
:100540000400e0000600320015c9ba000201e8000c
:10055000020039003420ec0002f0a0008301e90021
:100560008180e80054a0b4000300e000e2ff3a00fc
:10057000000006009102ba00055978008301e900e5
:10058000f7ff3200c82ade00055978008301e90030
:10059000f3ff32000400e000f1ff320011d9ba008d
:1005a000eeff3700801f7800849fbe00861f780012
:1005b0000000fa008020a900740c80004822de00b0
:1005c000614262000404a200614262000482fb00f6
:1005d000610262004822dd00760c8000f5ef2f00fa
:1005e0008502630005027200740c8800f2ff370078
:1005f000801f7800849fbe00861f78000000fa00ec
:100600008060a900740c80004722de006142620015
:100610000404a200614262000482fb0061026200e5
:100620004722dd00760c8000f5f72f00850263007d
:1006300005027200740c8800f2ff3700801f7800fa
:10064000849fbe00861f78000000fa008040a90049
:10065000740c80004722de00614262000404a200a4
:10066000614262000482fb00610262004722dd00f9
:10067000760c8000f5f72f008502630005027200fa
:10068000740c8800f2ff3700801f7800849fbe0042
:10069000861f78000000fa008080a900740c80009a
:1006a0004822de00614262000404a200614262004e
:1006b0000482fb00610262004822dd00760c8000ab
:1006c000f5ef2f008502630005027200740c8800ac
:1006d000f2ff3700801f78000000fa008020a90098
:1006e000ffff3700801f78000000fa008060a9003b
:1006f000ffff3700801f78000000fa008040a9004b
:10070000ffff3700801f78000000fa008080a900fa
:10071000ffff3700849fbe00861f78000000fa00ac
:10072000740c80004822de00614262000404a200d2
:10073000614262000482fb00610262004822dd0027
:10074000760c8000f5ef2f00850263000502720031
:10075000740c8800f2ff37006900e10004003500e6
:100760006d00e100030034000002b100010032001e
:1007700000000500100005000a00fa00e20f50001a
:1007800022003e00c48b8000e10f520006003200c0
:10079000e7512000a651200084512000655120001f
:1007a000e08f530004003a0087502000465020009c
:1007b0002450200005502000000028001500600093
:1007c00003003a00800b780007002800958a730028
:1007d000054020009482620001003a0014a0a000ad
:1007e0008202780006003700940378000710b200f8
:1007f000fdff3200b103fb00070b78008502e90022
:10080000e08f5200f8ff3a00080037003400200063
:10081000c0bf9f00e2bf9f00b4bf9f00d1bf9f0039
:100820006a805700a50b07006fb997000200780097
:100830000080fa000000060003f0a200889fbe00be
:100840008a9fbe008c1f7800d5000700dc003300b3
:100850006450e1004f0032006420e1005200320099
:1008600003826c0007003b000905d0000306d0009e
:10087000820f54000c065d000200390002003200b5
:1008800089017800030678008582550004003d0048
:100890000003fd008103fd008502ea008b85420014
:1008a000840f720002003b0060001000e08018001e
:1008b0006011b8000005eb007a28e1000a00390059
:1008c00006007800c75ddd00f707b200878075007d
:1008d0002d003700828171000a01780061056000f7
:1008e0008180d1000080d3008502e900f9ff3b0040
:1008f000060440008784480002003b0060041400a6
:10090000e0841c000988a300070032008a8171007e
:1009100082817100610164008904d1000884d300e0
:100920008b05e800170037000978a30013003a0090
:100930000b00e000130034008b05e90008044400bc
:1009400089844c000a4474000978a3000d003a0021
:100950000b00e000070034008b05e90008044400a8
:1009600089844c0001003a000b0020000978a300a4
:10097000f7ff32000001eb000200370082817100b6
:100980000a017800600007000cf0a70001f0a00049
:10099000940037006420e10002003a00838f6c006d
:1009a000940033000801be000200be008d00370035
:1009b000889fbe008a9fbe008c1f780078000700c9
:1009c0007f00330003866c006450e1002e0032008b
:1009d0006420e100330032006150e1002f0032005a
:1009e0006120e1003100320085855500eb07b00041
:1009f0000900200008042000050037000804440016
:100a000089844c000a0031000603430087834b00b1
:100a10000001530081815b00f8ff33000203be0038
:100a20000800a0000804440089844c00f6ff390047
:100a3000c639dd008301730001003200130020007d
:100a40008904d1000884d3000998a300050032006e
:100a50000800a7000300a0008904d1000884d30087
:100a60008b05e8008904d1000884d3000001eb0065
:100a70000281d2002400070001f0a1000cf0a700c1
:100a800001f0a000570037006420e1005900320057
:100a90000801be000200be00f7ff37006120e10040
:100aa000540032006000b800f3ff3700000020005f
:100ab00001f82700f0ff3700839f68000100e00085
:100ac00002003d0060001000e08018000300e0001c
:100ad00002003d0060011100e0811900570007008d
:100ae0004f00e00002003b0060001000e0801800b2
:100af0000000060014002000a00137004f89de002e
:100b000082017800b8013700810020006180550023
:100b10000b003d000b00200061fe2f000100e100f2
:100b20001d00340082817100610164008904d100dc
:100b30000884d3000000e800faff3a0071002000aa
:100b400061006400030070000200600009003200d0
:100b500061044400e0844c000988a50005003200cf
:100b60008b05e8006808e10002003a008904d10022
:100b70000884d300f20f20000258e10005003d0078
:100b8000c75ddd00f907b2008980750008007800b4
:100b9000000006000bf827008b007800000005001d
:100ba0000004be00cf0107000003be000405be0024
:100bb0000200be00cb010700844f75000000060054
:100bc0000200be006450e100050036006420e10030
:100bd000020036000968a30001003a000800be00c8
:100be0000160a0004f0678004f05be004f04be0014
:100bf00000000600f0ff2f00f1ff2700f9ff37008b
:100c0000811f78000100e00002003d00600010003c
:100c1000e08018000300e00002003d0060011100c8
:100c2000e0811900150007004f00e00002003b00c2
:100c300060001000e0801800000006006022b8008c
:100c4000060220000000d0008180d2000482d20081
:100c50008582d2000000a0000202520083825a0066
:100c6000030031000202420083824a000000a1001a
:100c70000603e900f3ff3a0000000600efff07005b
:100c80000400be0000000600889fbe008a9fbe00d0
:100c90003004be002005be000404440085844c00de
:100ca00006054d0087854d000898be000a90be00dd
:100cb0000440e10005c8e10006d0e10007d8e100ea
:100cc00002003100680040001008e8004f05be0037
:100cd0004f04be00000006001000fa00889fbe000e
:100ce0008a9fbe00110020000605be000404be005d
:100cf0003002be002003be00c4b79f00d5b79f00de
:100d0000e6b79f00f7b79f000802520089825a0099
:100d10000a035b008b835b0084bf9f0095bf9f002d
:100d2000a6bf9f00b7bf9f000498be000698be00f4
:100d30004fb29700dfb297006fb39700ffb39700f1
:100d40000820e10009a8e1000ab0e1000bb8e100c9
:100d5000010039008000eb004f05be001088100034
:100d60004f04be000080fa00000006001400fa00e4
:100d7000889fbe008a9fbe008c9fbe000006eb00cd
:100d80003e000700ccb79f00bcb79f00acb79f00e8
:100d90009cb79f008cb79f000605be000404be00f0
:100da0000d0420004fb39700bfb2970086034300a5
:100db0002fb29700e00f530004003d003d000700f4
:100dc0000f004000b0ff07000300370039000700a4
:100dd0000f004000c0ff0700cfb2970095bf9f00f3
:100de000e08f5200090035002b000700140020009e
:100df000050020006033b80000007200818072009e
:100e000002017300838173001c0007000c06e800d8
:100e10008d0f5600e3ff3a001fba9700e00f520013
:100e200005003d000802be000a03be0000fe2f00c0
:100e30000f00400094ff07004faa9700e00f5200f8
:100e400008003a000fb497009fb497002fb59700a1
:100e5000bfb59700d8b79f00e9b79f00fab79f00ca
:100e60008bbf9f000c0007004f06be004f05be0061
:100e70004f04be000080fa000000060001000700d9
:100e80000000060090b79f00a1b79f00b2b79f0077
:100e9000c3b79f0000000600010007000000060025
:100ea0001fb09700afb097003fb19700cfb1970048
:100eb000000006004f2bde00f9ff07008683730059
:100ec000858242004f23de00a7b79f008682720012
:100ed0000402420095b79f00ffaa97004f2bde0047
:100ee000858242000602720084b79f006faa9700b5
:100ef0004f23de000402420086827200f5af9f009d
:100f00004f18de0000027200e5ff0700e4af9f000b
:100f100000004000818048000201490083814900af
:100f20000802be000a03be00d6ff070000fe2f0025
:100f300000000600881f780018002000881f780035
:100f40008aff07008f87e9004f0478000000060041
:100f5000801feb0085ff07008f87e9000000060077
:100f6000889fbe008a9fbe00e00f5000e08f5800af
:100f7000e00f5900e08f59000c003d006044b800bc
:100f80006055b8000000540081805c0002015d00e3
:100f900083815d00180020001500070008003d0057
:100fa000180007000004eb00050037000004eb0008
:100fb0000f00070002003d0012000700180020008b
:100fc000dcff0700e00f5400060032006022b8008a
:100fd0006033b8000000520081805a0002015b00bb
:100fe00083815b004f05be004f04be000000060079
:100ff000e00f5200e08f5a00e00f5b00e08f5b00d3
:10100000000006006044b8006055b80004025400b7
:1010100085825c0006035d0087835d00000006009a
:10102000889fbe008a9fbe008c1f7800e00f500092
:10103000e08f5800e00f5900e08f59000d003d008f
:101040006044b8006055b8001c0020000000540047
:1010500081805c0002015d0083815d000820e10069
:1010600009a8e1000ab0e1000bb8e1000d003d0065
:10107000080037000006eb00e00f5200e08f5a0036
:10108000e00f5b00e08f5b0006003d006044b800ad
:101090006055b8000402540085825c0006035d00c0
:1010a00087835d00aaff0700e00f560006003200ac
:1010b0006022b8006033b8000000520081805a00fe
:1010c00002015b0083815b004f0678004f05be0084
:1010d0004f04be0000000600889fbe008a9fbe002d
:1010e0008c1f78000006eb00e00f5000e08f5800e6
:1010f000e00f5900e08f590007003d006044b80040
:101100006055b8001c0020000000540081805c0085
:1011100002015d0083815d00e00f5200e08f5a0004
:10112000e00f5b00e08f5b0007003d006044b8000b
:101130006055b8000c00a2000402540085825c00d7
:1011400006035d0087835d007b000700e00f56000b
:10115000060032006022b8006033b8000000520080
:1011600081805a0002015b0083815b004f0678009a
:101170004f05be004f04be0000000600889fbe0061
:101180008a9fbe00841f780085fe07004f0078000c
:1011900011003300f0ff2f00838f6c0006003b002e
:1011a000040565000a00a7000800370009f0a60042
:1011b0001000200008003700820f5400838f5c006d
:1011c000030039001000200001003e000000200054
:1011d00009f0a7000000ea004f05be004f04be0062
:1011e0000000e00000000600881f7800030478007b
:1011f0000300e00007003d0060001000e0801800e0
:1012000060011900e081190002003b0001f02d008f
:10121000030037000400070008f0a70001f0a00059
:101220004f04780000000600889fbe008a9fbe0021
:1012300000827000040271000482710026003200f6
:101240000004be000200be006011b8006b0920005f
:10125000950220000182cf000a0039000541b1004b
:101260000082cf00070039000541b1000982cf009c
:10127000040039000541b1000882cf0001003900a7
:101280000541b10005425200120032000a003b0045
:1012900082817100610164008100d1000080d3006f
:1012a0008984d3000884d3008b05e8000442e80059
:1012b000f7ff3a00070037000804440089844c0017
:1012c00000004800818048008b05e9000442e900e5
:1012d000f9ff3a000cfe07004f05be004f04be00a8
:1012e00000000600c70ade00f107b200f50fb200e9
:1012f00008003200e1cf4200020032000170a0007d
:1013000024000500810f7000010032000408050070
:1013100044000500810f700002003a00140005002f
:101320008502e9000000400081c04800fcff3b004e
:101330000170a00024000500889fbe008a9fbe00a7
:101340008c9fbe000404b8000506b800890446005e
:1013500060854e000606b8000a054600e0854e008e
:101360000706b8008b054600040eb8008904460045
:101370000a854e00e0854d00050eb8000a054600be
:101380008b854e00060eb8008b0546000416b8008b
:101390000a0546008b854e000516b8008b054600f1
:1013a000041eb8008b0546000800be000a01be00fe
:1013b0004f06be004f05be004f04be0000000600f1
:1013c000ea874700889fbe008a9fbe00810578009b
:1013d0008c9fbe008e1f7800e08f55000100320008
:1013e000800d7800000578008a04780009057800ef
:1013f0003a06fb000c007800d7fc0700e00f500015
:10140000f9ff3a00d4022000840f560003003a008e
:101410008a04780018c0b300050037000044780043
:10142000b4022000840f560001003a008a047800bc
:101430008006eb006000b8000d0578000ecdb3000b
:10144000e4c2b300010037008904e8008902780093
:101450007003640004003a00994f120002003a0041
:101460000844a000f8ff3700194678000c03fb0081
:101470000603b100e90f530017003e000814a00056
:101480008802fb00e98f56000f003200f0826200f4
:10149000010032000a05e900e4b79f00a200200025
:1014a000030020008d06e800f60a07000e43460000
:1014b0006fb297000683fb00070020000000430086
:1014c00081804b00e0ff3700f0826200deff3a00cf
:1014d0000a05e800dcff370054c6b300844f56000d
:1014e000040032008006eb0054c4b300844f560061
:1014f0002e003a0059427800d5c2b300854f520001
:1015000002003a000834a00003003700b5c2b3005f
:10151000854f520001003a008904e80007c3b30078
:10152000890278008504780004c3b3003943780049
:10153000874f5300faff32008603fb008006eb0062
:101540000703b100e98f530015003e0089027800bf
:1015500084465300154378008d86fb008603fb000c
:101560000703b100e98f53000d003e006a69b9001e
:1015700084465300554378008d86fb008603fb00ac
:10158000828646000703b100e98f530004003e0045
:101590006a69b900844653008d86fb008286460046
:1015a00068026400010032008d06ea00e08f5500f9
:1015b000030032006202640001003200850d7800f1
:1015c0004efd07006011b8000002be000003be001f
:1015d000e4b79f00d5b79f00f4b79f0087bf9f0077
:1015e00044fd07006fb2970000017800dfb297005a
:1015f0006000b8007fb397008fbb9700e00f5100e9
:10160000600032000a85460032f82f00820f550034
:1016100003003d0024022000b48b880059003700ed
:1016200000082000800f550007003400240220002d
:1016300061046400b48b88004d003200000020007b
:1016400001f82f004f003700e00f55001f003d004c
:101650000a05ea00060037000400be00922f2000b1
:10166000530125006a055500d1fc07000002be00a9
:10167000e90f5500f8ff3c00060037000400be00eb
:1016800002002000031224000a05e900c8fc07003c
:101690000002be00e00f5500f8ff3a000403be0050
:1016a000020020000308200087bf9f000400be0046
:1016b000f4b79f000ffd07007fb397008fbb970023
:1016c000e00f500025003d001f003700e00f5500df
:1016d00007003a00210037000400be00922f2000ce
:1016e000530125006a055500300a07000002be00bc
:1016f000e94f5500f8ff3e00060037000400be0029
:1017000002002000031224000a05e900270a07004e
:101710000002be00e00f5500f8ff3a000403be00cf
:10172000f2ff2f00f3f7270087bf9f000400be00e1
:10173000f4b79f002d0907007fb397008fbb970078
:10174000e00f500005003400610464000b0032001b
:1017500000002000010828000a003700610464002e
:101760000100320007f0a2000600be0005003700ad
:101770000000200001f827000200370000002000d0
:10178000010820004f0778004f06be004f05be003d
:101790004f04be00af00b1000000060008ff370094
:1017a0008000eb0006ff37000002780002003700df
:1017b000315a78000201e900e00f5100fcff3a00c5
:1017c000000006000002780002003700015a78008d
:1017d0000201e900e00f5100fcff3a0000000600a2
:1017e000889fbe000004be00050037000000fb001b
:1017f000890078002b070700e10f40000400320049
:1018000038407800e04f5000f8ff3a000000eb004d
:101810004f04be000000060061152100881f7800fb
:10182000efff07006115210000047800a0002000f0
:101830001c070700080078004f047800000006002d
:10184000b042780031c2520002003a00e0cf5200ac
:10185000fbff3a000400fb000000060000027800d5
:101860008042eb00b4cf1200fdff3a000080ea0096
:1018700000004200000006000b00370030427800f4
:10188000e04f5200030032000201e900b14f520064
:10189000050032000480fb00954278008582fb0041
:1018a000050050000000060081027800e00f5100a2
:1018b000f2ff3a000200780000000600889fbe0098
:1018c0000004be000c00370009007800e3ff0700a9
:1018d000890078000001780008007800e6ff070022
:1018e000e00f50000a0032000800e8009900fb00f9
:1018f0000c00070000047800e00f540004003200e0
:101900000042eb00984f1200efff3a000004eb009a
:10191000080078004f04be00000006006115210099
:10192000e00637000002eb00881f78006103b80072
:10193000060478006121b80006004100e842790001
:1019400081cf5200040032000402e800e0cf5200d0
:10195000f8ff3a000000eb004f047800000006009a
:101960000c00fa00889fbe00f4ff270000047800f6
:10197000d4bf9f008004eb0088bf9f0099bf9f00e9
:10198000a8bf9f00240c200078815700b4bf9f009f
:10199000cfb0970070805700c40007000fba9700bf
:1019a000094a78000fba9700080052004f04be00a1
:1019b0000080fa0000000600d4c6b3000800fa0058
:1019c000889fbe000084fb008a9fbe00844f5000a9
:1019d0003400360009fd20004b06200011000900ec
:1019e0000b84d800720040004300dd0000804400fa
:1019f000810578006022b8000600200007fe230061
:101a0000aa0020005001be004000be00f2080700fe
:101a10000002be00110009008a85d8008005780008
:101a2000e9854500c35ddd008b8544000203be00ef
:101a300084bf9f0095bf9f00a6bf9f00b7bf9f00b8
:101a40003b02be002b03be000fb897009fb8970063
:101a50002fb99700bfb99700df0807000002be004a
:101a6000110009000a84d800010478004344dd0015
:101a7000888444000203be0084bf9f0095bf9f007e
:101a8000a6bf9f00b7bf9f003902be002903be005a
:101a90000fb897009fb897002fb99700bfb997006c
:101aa0001d003700ea4f500013003600aa00200046
:101ab00009fd2000110009000a84d8000105780002
:101ac000690440004355dd004344dd0008844400c0
:101ad0008a8444006022b8000600200007fe23002c
:101ae0003800be002801be00bb0807003902be0056
:101af0002903be000800370004fd20004344dd0038
:101b0000080442006022b8000600200007fe2300ff
:101b10003800be002801be00af0807004f05be0018
:101b20004f04be000080fa0000000600d4c6b300d7
:101b30000800fa00889fbe008a9fbe00e04f500058
:101b400022003d000040ea000004fb00844f5000ea
:101b50000a00340044062000a900200011000900fa
:101b60000404d8000afd2000110009008900d800f3
:101b7000e9004000c308dd0020003700ea4f5000b4
:101b80000f003400a4002000110009000404d80054
:101b900004fd2000690040004300dd000000420019
:101ba000430cdd00080242005001be004000be00b0
:101bb0005403be004402be00870807003700370008
:101bc0004344dd0004fd2000310037000004fb0029
:101bd000844f50002300340044062000a900200058
:101be000110009000404d8000af2200011000900c5
:101bf0008900d800e9004000c308dd0081004500ed
:101c00008b0920008a8545003102be002103be00f9
:101c10003b00be002b01be006f0807000002be00a3
:101c2000110009000904d800010478004344dd00d4
:101c3000080545000203be0084bf9f0095bf9f00ba
:101c4000a6bf9f00b7bf9f003a02be002a03be0096
:101c50000fb897009fb897002fb99700bfb99700aa
:101c6000d5ff3700ea4f500007003400a4002000e1
:101c7000110009000404d80004f2200069004000ab
:101c80004300dd00c5ff37004344dd0004f22000bf
:101c9000080442003800be002801be004f05be0007
:101ca0004f04be000080fa0000000600ef05b000ff
:101cb000889fbe008a9fbe008c9fbe0000067800f1
:101cc0008e1f78000007eb00e19f9f0082af9f000e
:101cd0006000b8006011b80080a79f0091a79f0026
:101ce000a2a79f00b3a79f00db053700ef989700de
:101cf00054c2b3008100e800e19f9f00844f500070
:101d000006003a00010378008006eb0007c3b30029
:101d100000c2b300b1c2b3000e0037003c02900015
:101d20000404b200040032001c027800004a78006b
:101d3000040ee800050037000000fb008c0078006e
:101d4000d8050700e10f4000c30532000e07e80088
:101d5000c105370006027800d2c2b300b64278004f
:101d600082cf52000900320005003c0080cf5200b3
:101d70000800320081cf52000c003a000700370003
:101d800087cf520009003a00060037000d30a0004e
:101d9000f0ff37000d00a000eeff37000d10a0008f
:101da000ecff37000d20a000eaff370062836600d9
:101db000010032000d00a1006883660001003200be
:101dc0000d20a1000503fb000603b100e90f53003d
:101dd0000e003e008001eb0084027800830378004f
:101de0003502fb006a3bb9000403b10086034200e0
:101df0001503fb00050278000603b100e90f53004c
:101e0000f7ff360097b79f000a0037000003eb008a
:101e100096b79f00a6c2b30086cf520005003a00d5
:101e20008fab97000402e8004700780087af9f005f
:101e300090b79f00e5c2b30094cf120018003a009b
:101e40000de0a000e4c25200d4cf12000400320022
:101e50008000eb00840278008103780009003700dd
:101e60000fa997000402e800c201780082af9f002a
:101e7000d3af9f00c6c6b3000d0037006a38b90063
:101e800080034300050278003503fb000603b10020
:101e9000e90f5300f9ff3600d7af9f00f5ff370079
:101ea0008002eb000dc0a000d5af9f00f1ff37000e
:101eb00084037800b74278000702780086cf52008a
:101ec0002d003200e79f9f00c4c6b30084cf5200ac
:101ed00014003c006842520084cf520024003200bb
:101ee00009003c006c42520084cf52002f003200a7
:101ef0006b42420084cf52009a003200e0cf520081
:101f00005a053200b800370064c6b30084cf5200cf
:101f1000200032006342420084cf5200b2003a00f7
:101f20001300370034c7b30084cf520023003200bf
:101f300007003c006442520084cf52001800320077
:101f40000442e80084cf5200a7003a00170037008f
:101f500054c7b30084cf5200a8003200634242004d
:101f600084cf5200a0003a00e5579f0011003700cf
:101f7000e5579f00a3003700f083660005012000ad
:101f800001003200050028008d827200850678006d
:101f9000c7ff3700e5579f000da0a000990037004c
:101fa000e5579f000d60a00096003700e5579f00a1
:101fb0000d50a0000d70a000920037000fab9700ed
:101fc000e5579f004602780086af9f000404780022
:101fd000e00f520001003a00280a21008802780030
:101fe0000002eb00010037000402e80065437a00bc
:101ff000e04f5300fcff3a0084047800dfab970009
:10200000e08f530003003200898f5300010031003c
:10201000870478000002eb001fb09700890f500082
:102020000100360009025000e8866600ddaf9f001f
:102030008d007800e08f50002d003a008406780073
:1020400004c2b30010003700bc0290000504b200c7
:10205000040032009c027800844a7800050ee800f3
:102060000700370084bf9f008c007800000220002a
:102070000c0507000fba9700e10f40000100320085
:102080000e07e8008d06e900e08f5600eeff3a00eb
:102090000082eb0016003700bc0290000504b2007d
:1020a00009003200880278009c03780035437800ec
:1020b000864b780005047800070ee800e04f5300d7
:1020c0000a003a000a003700880278008c00780085
:1020d0003500fb0084bf9f0005047800f104070071
:1020e0000fba9700e10f4000010032000e07e80030
:1020f000890278008504e900e08f5200e6ff3a008b
:102100005fa99700e00f5100d304320084067800e5
:1021100004c2b30010003700bc0290000504b200f6
:10212000040032009c027800844a7800050ee80022
:102130000700370084bf9f008c0078000002200059
:10214000d80407000fba9700e10f400001003200e9
:102150000e07e8008d06e900e08f5600eeff3a001a
:10216000bd0437008fa99700f08266004302780013
:1021700083af9f0004007800cf80de00010178006b
:102180008201780090af9f00a1af9f00b2af9f0087
:10219000c3af9f004800de00480add000000720067
:1021a000e0579f00e08f520009003200e04f5000de
:1021b00007003200e14f400005003200afd2970027
:1021c000f0579f00855f9f00290020000300370023
:1021d0002fd3970019002000f6579f0078f92f00a1
:1021e0000f04440085ff3700e5579f0068f92f0072
:1021f0000f0444001900200080ff3700e5579f00be
:102200000d0cb300047020000482660065023200e9
:1022100004002100048266000200320067002000f2
:10222000d7af9f0070826600090032000faa9700a6
:102230004401be004400be0084af9f0090af9f00e9
:10224000a1af9f00b2af9f00c3af9f000a0037004d
:102250008faa97004500be0085af9f004406070087
:102260000002be000203be0094af9f00a5af9f0016
:10227000b6af9f00c7af9f006022b8006033b800c0
:102280001fa89700afa897003fa99700cfa9970074
:1022900089050700e00f50000a003d001fa89700c5
:1022a000afa897003fa99700cfa9970003f0a2001d
:1022b00090af9f00a1af9f00b2af9f00c3af9f0040
:1022c0003d00b3000002eb001fa89700afa89700e5
:1022d0003fa99700cfa99700d48f9f006022b80034
:1022e0006033b800d8050700e00f5000340032001a
:1022f000a4f92f000f0242001fa89700afa8970073
:102300003fa99700cfa99700960607005f8897001e
:10231000a40020000000e9006300b90011000900da
:102320000400d800d08f9f00e00f500002003d0055
:102330000000e900d08f9f005f8c97000840ea0002
:10234000fafd07001faa9700afaa97003fab9700be
:10235000cfab9700a00607000002be000203be003c
:1023600084a79f0095a79f00a6a79f00b7a79f00df
:102370006022b8000600200007ff23004e0507007a
:10238000e00f500002003d000804e9000b00370098
:102390006022b80006002000470224000fa097002a
:1023a0009fa097002fa19700bfa1970047050700a6
:1023b000e00f5000020035000804e800d88f9f00ad
:1023c000dfaa9700f88f52000f003c00054078000c
:1023d00079fd07000002be000203be001fa897009f
:1023e000afa897003fa99700cfa99700b5040700b1
:1023f0000002be000203be0094af9f00a5af9f0085
:10240000b6af9f00c7af9f005f8c9700e90f5400e5
:1024100015003c006022b8006033b8001fa8970088
:10242000afa897003fa99700cfa99700860507009e
:10243000e00f5000320032001fa89700afa89700ad
:102440003fa99700cfa99700ea050700e00f5000c9
:10245000e08f5800e00f5900e08f590028003a0043
:10246000e10f5400260034000400200005002e0077
:10247000b6e02200170124000fa097009fa097004c
:102480002fa19700bfa197000b050700e00f500098
:1024900002003d0073045400010037007204540030
:1024a000d88f9f002f589700a0fd07000002be00a4
:1024b0000203be001fa89700afa897003fa997008e
:1024c000cfa9970084a79f0095a79f00a6a79f006c
:1024d000b7a79f0002050700c60507000205be005a
:1024e0000004be006000b8006011b80090af9f000b
:1024f000a1af9f00b2af9f00c3af9f00170037008e
:102500001fa89700afa897003fa99700cfa99700f1
:10251000b80507000205be000004be00e60507007e
:102520000002be000203be001fa89700afa89700dc
:102530003fa99700cfa99700d00607000002be0070
:102540000203be0094af9f00a5af9f00b6af9f00ef
:10255000c7af9f000002eb00d48f9f00210b21002a
:1025600010c0b300080037003102be003103be00c6
:102570000440e10005c8e10006d0e10007d8e10011
:10258000030039000040e800f44f5000f6ff3a0025
:102590009fb29700e0579f005f8a97005fab97005c
:1025a000048252000000fb000602520000005200ac
:1025b00090b79f00e00f5300020032000000e900d6
:1025c00090b79f0063826600030032009fb39700bc
:1025d0008703e90097b79f006482660045003200d8
:1025e00062826600e1826600e00f52001100320054
:1025f0003c0290000404b200080032001c03780082
:10260000b4c2b300e08f52000100320004c2e800ff
:10261000044b7800060ee80015003700b0022000d9
:10262000e08f5200010032000080e8008c0078004a
:102630000c003700e08f5200200032003c02900076
:102640000404b200050032009c02780004c2b3000a
:10265000844a7800050ee800050037008c007800f9
:10266000000220008f030700e10f4000130032003a
:102670000e07e800110037003c0290000404b2008d
:10268000040032001c027800054a7800040ee800bd
:1026900007003700f5b79f008c007800000320008a
:1026a00080030700ffb29700e10f400001003200f5
:1026b0000e07e8008904e90006003700c8a79f005c
:1026c000d9a79f00eaa79f00fba79f009fb4970090
:1026d00005c3b300e08f5400e7ff3c0099b79f00ab
:1026e0004fa49700dfa497006fa59700ffa5970060
:1026f0006e003700688266001f003a001100370044
:102700003c0290000404b200040032001c02780075
:10271000054a7800040ee80007003700f5b79f006f
:102720008c007800000220005e030700ffb29700d3
:10273000e10f4000010032000e07e8008904e900c3
:1027400006003700c8a79f00d9a79f00eaa79f00ef
:10275000fba79f009fb4970005c2b300e08f540011
:10276000e7ff3c0099b79f004fa49700dfa49700b4
:102770006fa59700ffa5970062826600e182660060
:10278000e00f5200110032003c0290000404b2003d
:10279000080032001c037800b4c2b300e08f52007e
:1027a0000100320004c2e800044b7800060ee80085
:1027b0003d003700b0022000e08f520001003200df
:1027c0000080e8008c00780034003700e08f520071
:1027d000360032003c0290000404b20005003200d2
:1027e0009c02780004c2b300844a7800050ee80019
:1027f0002d0037008c0078000002200027003700f1
:102800003c0290008502fb000404b2001300320079
:10281000a20a2100c32add00850241009c00780045
:102820005503be004502be00c1a79f000800be00c0
:102830000a01be00bff90700a40020000500200027
:102840006033b800c2f907004fa2970005c3b30078
:10285000054a4000040ee80013003700a60a2100d4
:10286000c32add00850243000800be000a01be0045
:102870005503be004502be00aef90700a4002000cb
:10288000050020006033b800b1f907008c00780023
:102890000403200000024200040078000103070046
:1028a000e10f4000010032000e07e8006f52970070
:1028b0008442e900e5579f00e04f5200d0ff3a0004
:1028c000110037003c0290000404b2000400320002
:1028d0001c027800084a7800040ee8000500370062
:1028e0008c00780000032000ee020700e10f40009a
:1028f000010032000e07e8005f8a97000402e90039
:10290000d48f9f000100370008c3b3005f8a97008f
:10291000e00f5200ebff3c00dfab9700f28f53005b
:102920000300340024c1b300e4579f0002003700c5
:102930002fd89700e0579f006f529700dfa89700ad
:102940008402fb0085825000c5a79f00e04f520023
:102950000e0032003c0290000404b2000500320078
:102960001c027800e5c2b300054a7800040ee800b6
:10297000050037008c007800e0022000c902070043
:10298000e10f4000010032000e07e8006f50970091
:1029900066fc07000002be000203be001fa89700ed
:1029a000afa897003fa99700cfa997000a05070095
:1029b00090040700350037003c0290008502fb00c0
:1029c0000404b20013003200a30a2100c32add0070
:1029d000858241001c0178005503be004502be00ff
:1029e000d2af9f000800be000a01be0051f90700e7
:1029f000a4002000050020006033b80054f907004f
:102a00005faa970005c3b300054a4000040ee80022
:102a100013003700a60a2100c32add008502430007
:102a20000800be000a01be005503be004502be00fc
:102a300040f90700a4002000050020006033b80022
:102a400043f907008c0078000403200000024200d4
:102a50000400780093020700e10f400001003200fb
:102a60000e07e800ef539700a00a21000702fb00c1
:102a70004322dd00040240000800be000a01be003f
:102a80005403be004402be0031f907006f529700a4
:102a90000205be000004be008442e900e5579f0025
:102aa000e04f5200c4ff3a0011003700bc02900012
:102ab0000504b200040032009c027800844a7800c9
:102ac000050ee8000700370084bf9f008c007800e7
:102ad00000032000730207000fba9700e10f4000c7
:102ae000010032000e07e8008904e9000600370003
:102af000cfa49700d0af9f00e1af9f00f2af9f003f
:102b000083b79f0004c3b300e08f5400e7ff3a008f
:102b10005fac9700efac97007fad97008fb5970043
:102b2000e88666004c0232009fb09700e08f5000ac
:102b3000490234000802be000a03be000dc2b30001
:102b4000810478003c0090000004b20004003200d0
:102b50001c0078000d487800000ee8000d003700da
:102b600084bf9f00f5b79f00d6b79f00e7b79f00cf
:102b70008c007800000220004a0207000fba97007c
:102b8000ffb297005fb39700efb39700e10f4000eb
:102b9000010032000e07e8008904e900e9ff3a006d
:102ba0002d0237008d027800050cb2002a003a0091
:102bb000e08f560005003d000fa997004205be00ba
:102bc0004204be0082af9f0016003700708266008c
:102bd0000e0032000fab97004602be00c4979f0064
:102be000d5979f0086af9f00160290004fa2de008f
:102bf000e4979f00f4979f004f949700df9497000d
:102c00006f959700ff959700060037000fa8970073
:102c10004004780080af9f00cfc4de000905780033
:102c20008a057800e00f5400e08f5c00e00f5d0043
:102c3000e08f5d0023003d006022b8006033b800e3
:102c40003d00b3000804520089845a000a055b0065
:102c50008b855b001b003700e08f560005003d00b0
:102c60008fa897004105be004104be0081af9f00c0
:102c700014003700f08266000c0032008faa970023
:102c80004501be00a4979f0082979f0093979f00e5
:102c9000b4979f0085af9f000f9497009f94970073
:102ca0002f959700bf959700060037008fab9700d0
:102cb0004704780087af9f00090020000a00200029
:102cc0000b0020005fa89700e00f500009003a00b9
:102cd00011002000d1af9f00e00f5400e08f5c0096
:102ce000e00f5d00e08f5d00020032000001eb00ac
:102cf000d2af9f008d01780004042000030cb200c5
:102d000093af9f00848f51002c00320003003c00e1
:102d1000e08f5100080032003c003700040820001a
:102d20009faa9700848f520010003200040c2000ec
:102d3000848f520035003a00250b210014c0b300e7
:102d40003500be003501be000040e10001c8e100d1
:102d500002d0e10003d8e1002b0039000442e80072
:102d6000f44f5200f6ff3a002700370014c0b300ba
:102d700000012000010020006011b8000040e100c7
:102d800001c8e10002d0e10003d8e1001e003900d3
:102d9000460020000000d0008180d2000281d200d5
:102da0008381d2000603e900faff3a000442e800fa
:102db000f04f5200f1ff3a001300370014c0b30087
:102dc00080002000010020006011b8000040e100f8
:102dd00001c8e10002d0e10003d8e1000a00390097
:102de000370020000000d0008180d2000281d20094
:102df0008381d2008703e900faff3a000442e80029
:102e0000f54f5200f1ff3a00e4579f006f509700d2
:102e1000dfa897000002fb00810f520002003d0076
:102e2000e1579f00040037005fa99700840f51000d
:102e300001003d00d4af9f009fb19700e08f51008b
:102e40000400320063826600020032008301e90060
:102e500093b79f000400240004826600090032003a
:102e60001fb29700dfaa9700850f520003003400bd
:102e70000502520094b79f00020037000003eb00e8
:102e800096b79f00ef5397000000eb000702fb008e
:102e9000c0a79f009fb09700848f500002003400ad
:102ea00004825000c4a79f0064826600450032007f
:102eb000e282660061826600e08f520011003200fb
:102ec000bc0290000504b200080032009c027800a9
:102ed000b6c2b300e00f52000100320006c3e800a2
:102ee000864a7800050ee80015003700b002200081
:102ef000e00f5200010032000080e8008c007800f2
:102f00000c003700e00f52000e0032003c0290002f
:102f10000404b200050032001c02780005c2b300b0
:102f2000054a7800040ee800050037008c007800a0
:102f3000000220005b010700e10f400001003200a9
:102f40000e07e8004fa19700e00f51006300320028
:102f500098b79f00a9b79f00bab79f00cbb79f0053
:102f6000cfa4970004c3b300bc0290000504b200d4
:102f7000040032009c027800844a7800050ee800c4
:102f80000700370084bf9f008c00780000032000fa
:102f9000440107000fba9700e10f40000100320022
:102fa0000e07e8008904e900efff3a00c9a79f0077
:102fb0001fb49700afb497003fb59700cfb5970007
:102fc00046003700cfa09700e08f50001e0032006f
:102fd000688266001c003a0098b79f00a9b79f005e
:102fe000bab79f00cbb79f00cfa4970004c2b3002d
:102ff000bc0290000504b200040032009c0278007c
:10300000844a7800050ee8000700370084bf9f005f
:103010008c00780000022000220107000fba970000
:10302000e10f4000010032000e07e8008904e900ca
:10303000efff3a00c9a79f001fb49700afb49700f5
:103040003fb59700cfb59700e282660061826600c7
:10305000e08f520011003200bc0290000504b20063
:10306000080032009c027800b6c2b300e00f5200a4
:103070000100320006c3e800864a7800050ee80029
:1030800015003700b0022000e00f520001003200ae
:103090000080e8008c0078000c003700e00f520040
:1030a0000e0032003c0290000404b2000500320021
:1030b0001c02780005c2b300054a7800040ee8003f
:1030c000050037008c00780000022000f5000700a2
:1030d000e10f4000010032000e07e800dfa8970072
:1030e000a50a21000102e90098b79f00a9b79f0037
:1030f000bab79f00cbb79f004221dd006323b90020
:10310000929f9f004322dd008601780085024200e5
:10311000839f9f00f59f9f00708266008d0278005c
:10312000f48f9f000502b200e58f9f00a3003700d7
:10313000dfa897001fa997008100e9000304200081
:10314000d1af9f00830f51007300320003003c0099
:10315000e00f5100080032007e0037000408200014
:103160009faa9700848f520056003200040c200062
:10317000848f520077003a00e08f56001f003d0018
:103180007f9b97001fb09700afb097003fb19700ab
:10319000cfb197003604be002605be000802be006f
:1031a0000a03be0063f707000802be000a03be0060
:1031b000e0579f000000fb00cf80de000101780097
:1031c00082017800c4f707001fb29700afb29700e2
:1031d0003fb39700cfb397000002520081825a009c
:1031e00002035b0083835b0094b79f00a5b79f0039
:1031f000b6b79f00c7b79f002e003700ff8a970021
:10320000e08f5200220032007f9b97001fb2970090
:10321000afb297003604be002605be000400be0013
:1032200084bf9f00f5b79f000801be0083f607002a
:103230000801be00e0579f000000fb00cf80de00c9
:10324000900307000fba9700ffb2970000015200e9
:1032500081815a000002eb00a29f9f00b39f9f0054
:10326000d49f9f008001eb00c39f9f002f98970081
:10327000bf9897004f999700df99970090b79f00ec
:10328000a1b79f00b2b79f00c3b79f0009003700e6
:10329000ff9897001fb197001102780011000900f4
:1032a0000481d800a4002000110009000480d80087
:1032b000e1579f00ef5197000343b000e3579f0091
:1032c0002400370014092100ef8a9700e08f520094
:1032d00001003200040821001fb09700afb0970032
:1032e0003fb19700cfb197001f9b97000603e900fd
:1032f000050033008301d1000281d3008180d30017
:103300000080d300f9ff37006f0060006440780050
:10331000e0579f000f0037001fb29700afb2970031
:103320003fb39700cfb397000f9897000000e900d4
:10333000050033008703d1000683d3008582d300c4
:103340000482d300f9ff3700674262000443b000f3
:10335000e4579f003c0290000404b20007003200d2
:103360009c0278006f529700844a7800050ee800ae
:10337000e04f520007003a0007003700ef50970077
:103380000100fb008c00780046000700e10f4000c0
:10339000010032000e07e8001f9997008f999700ef
:1033a0007f9a970064015100e38151006802520046
:1033b000929f9f00839f9f00f49f9f00dfaa97002a
:1033c000e08f52005aff3a001fb49700afb4970045
:1033d0003fb59700cfb59700e88666001e00320023
:1033e0004fa39700e00f53001b0034000802be00fb
:1033f0000a03be00cfa497000dc2b3003c009000aa
:103400000004b200040032001c0078000d4878006f
:10341000000ee8000d00370084bf9f00f5b79f0045
:10342000d6b79f00e7b79f008c007800000220000d
:103430001c0007000fba9700ffb297005fb3970018
:10344000efb39700e10f4000010032000e07e800e3
:103450008904e900e9ff3a00ef9b970017407800e4
:10346000e0579f00e04f500020fa3a000e0078002d
:103470004f0778004f06be004f05be004f04be0048
:10348000ef05b10000000600601521000000fa0001
:1034900068815700cfb8970004fa07000080fa004f
:1034a00000000600889fbe00010478008084eb00c5
:1034b00038029000e20262003b0032000403780010
:1034c000980290000620b20002003a00e08f5200fd
:1034d00035003a000490a00080047800340498007d
:1034e000f90fb200e08f520002003a00a8029000eb
:1034f000050c7800ea8f540005003a000408b20079
:1035000003003a0088007800d0002000e5ff0700a3
:1035100018029000d8029000850f52000b00320074
:103520000402e80015c0b3001404980018027800e3
:10353000094a7800040ce80004172100054a7800c5
:10354000ea8f540018003a0005003700094078005f
:103550008800780017000700800478001200370008
:10356000380290000410b2000f00320018019000e1
:10357000a8009000480090007ff407001802900017
:10358000840f500004003200380290000403b3009e
:10359000340498008084eb000002eb0014049800cf
:1035a00028029000040c7800090078004f04be0047
:1035b000000006000200fa00889fbe0001047800a7
:1035c000a0ff9f0038029000840278000504b2003a
:1035d000020032000000fb0035003700e20262000a
:1035e00005003a000403b300150498003404980061
:1035f0000080eb002e003700d8049000e08f5400cc
:1036000006003a0012002000e680570048009000b3
:1036100059f407001904980023003700a80290000d
:10362000e08f520008003a00351721000430a00056
:1036300025049800050c780034049800250020002b
:10364000550498001504980018019000a8009000f7
:103650004800900048f40700280290008082eb00a8
:1036600015049800affa9700054a7800040ce800aa
:103670002ffa9700ea4f52000b003a0038029000f0
:103680000410b2000800320018019000a800900059
:103690004800900038f407000002eb00a8029000f8
:1036a00014049800050c78002ffa97000400fb0022
:1036b0004f04be000080fa000000060000c0da00df
:1036c000000006002800fa00889fbe008a9fbe0006
:1036d0008c9fbe0007067800878669000c003b00bf
:1036e000030478008704780008f0a10009f0a10025
:1036f000840f5000858f5800860f5900890f5c0099
:10370000030033000cf0a20001003a000cf0a1000d
:10371000fe0007006400e1005f003200780147000e
:103720006408e100610032006c01470074855700b5
:103730003200be001201be003a04be001a05be00ef
:103740001e039000be0a90008503530006003d0052
:103750000004fd008104fd000205fd008305fd005d
:103760008703ea00050378000df8a3000400320087
:1037700060041400e0841c0060051d00e0851d004d
:103780006022b8007d0320000d38e1008006eb00c8
:103790000b0039004433dd00f300b20083017300f5
:1037a00039003700848272000d027800e10664005f
:1037b0008b85d1000a85d3008984d3000884d30087
:1037c0008703e900f7ff3b000800400089804800bc
:1037d0000a0149008b81490004003b006000100091
:1037e000e080180060011900e08119000358a3006f
:1037f000090032008d8272008482720061026000d2
:103800008301d1000281d3008180d3000080d300e6
:103810000603e8001b0037000348a30017003a0026
:103820000600e000170034000603e9000d00a300c5
:10383000000048008180480002014900838149005e
:103840000348a3000f003a000600e000090034001e
:103850000603e900000040008180480002014900a1
:103860008381490001003a000003eb000348a300f4
:10387000f5ff32006022b800020037008482720037
:10388000618266007500070003f0a1000cf0a7003c
:1038900003f0a000b1003700640147006408e100b4
:1038a00002003a000df8a300a9003a003200be0061
:1038b0001201be00a90037008f1fd100f7010700d9
:1038c0008f87e9000000e00000000600809feb0009
:1038d000f20107008f87e9000000e0000000060009
:1038e0002800fa00889fbe008a9fbe008c9fbe0001
:1038f00003866b00850007006400e100440032008d
:103900006408e1004a0032006100e1004600320034
:103910006108e10049003200ec0647006000b80091
:103920003d02be003d03be00f48657006011b800a2
:103930003d04be003d05be007d0320000b003700a6
:103940000000a0008d06e9001300320004024200ce
:1039500085824a0006034b0087834b00000040002d
:103960008180480002014900838149000802520019
:1039700089825a000a035b008b835b00f0ff3b00e7
:103980000802420089824a000a034b008b834b00e5
:103990008d06e900edff3a00848272008682720093
:1039a000f707b20087827200010032001500200084
:1039b0001e0490003e0b900006035400e63fb0004a
:1039c0000368a300070032000000a7000500a00064
:1039d0008301d1000281d3008180d3000080d30015
:1039e0000603e8008301d1000281d3008180d30067
:1039f0000080d3000002eb000482d2001700070011
:103a000003f0a1000cf0a70003f0a0005300370062
:103a1000640247006408e1004d0032003400be003b
:103a20003401be00f6ff37006108e10048003200b3
:103a30006011b8006000b800f1ff370003ff2700f5
:103a400002002000fbff3700801feb0093010700fe
:103a50008f87e9000000e000000006001800200049
:103a600057002000080453000d003d000600200010
:103a700097fc2f000740e1001e0034008482720092
:103a8000610260008301d1000281d3008180d300f4
:103a90000080d3000804e800f8ff3a004700200047
:103aa0006104600005047400040464000d00320029
:103ab00061004000e080480060014900e081490069
:103ac00003b8a500070032000603e8006538e100ee
:103ad00004003a008301d1000281d3008180d30029
:103ae0000080d300f87f20000830e100030035009b
:103af000080378006000b8006011b8004433dd00ae
:103b0000f300b20083017300000006006804470060
:103b10000294be000094be00fc0447008694be00e0
:103b20008494be0009007800a50107000800780011
:103b3000a301070099007800814f70000b003b0043
:103b40000800be007e0107004f00b10003003700ef
:103b5000f3ff2700f2ff2f006110b9004f06be00ef
:103b60004f05be004f04be000080fa0000000600b2
:103b700081037800dbf507000001be006000b8009b
:103b80000478a30013003a006220e10015003e0013
:103b90000d0039008301d1000281d3008180d30060
:103ba0008301d1000281d3008180d3008301d10041
:103bb0000281d3008180d3000538b000c42add0023
:103bc000f300b2008381720007f0a70003f0a000a9
:103bd00000000600f3ff2700f2ff2f006110b9007c
:103be000fbff370003ff2700f7ff3700f4ff2f002c
:103bf00062f537001400fa00889fbe008a9fbe005d
:103c00008c9fbe000004be000205be006800470095
:103c10000a90be000890be00690107000070a7006e
:103c20000bf0a1000bf8a30020003a009e099000c1
:103c30000e099000fe0090006e0090009e02900021
:103c40003443200084825200c4ff32000a003c004a
:103c5000b4fc2f000428e100140034008301d100db
:103c60000281d3008180d3000080d3008502e80068
:103c7000faff3a00b9ff3700b40020000428e10041
:103c800007003c000000400081804800020149001c
:103c9000838149008502e900faff3a00afff37004f
:103ca0000300280002002000010037006011b80066
:103cb0006000b800a9ff3700889fbe000082700036
:103cc0000402710004827100240032003643200097
:103cd000c50020008383cf000a0039000541b100f0
:103ce0008283cf00070039000541b1008183cf00f6
:103cf000040039000541b1008083cf000100390084
:103d00000541b10085c353006022b80012003200a3
:103d10000a003b0084827200610260008301d100ce
:103d20000281d3008180d3000080d3000603e80025
:103d30008743e800f7ff3a00070037000000400023
:103d40008180480002014900838149000603e9009f
:103d50008743e900f9ff3a0040ff07004f04be0027
:103d6000000006001400fa00889fbe008a9fbe0073
:103d70008c9fbe00040678000004be000205be0051
:103d8000680047000a90be000890be000c010700c2
:103d90006200e1000800be000a01be00040020002d
:103da0000b003a001e029000e43fb1006e0090004c
:103db000fe0090000e0990009e099000f300b200f2
:103dc00005fe2300858171000bf0a70003f0a00021
:103dd000040e780061ff37002800fa00889fbe00bb
:103de0008a9fbe008c9fbe0003866b0047ff0700c2
:103df0000028a30064003a000128a30067003a00ed
:103e00000008a30062003a000108a30065003a0020
:103e10001e009000be08900081064000ed3fb100fa
:103e2000f4805700ee019000111ab8008e0990003e
:103e3000311bb8009e099000311cb800511db8001c
:103e4000f485570046000700fe0190003a00070085
:103e50008b85e8003e0007008e09900040000700b7
:103e6000ee019000340007008b85e8003800070061
:103e70008e099000400007009e0990001b18b800b2
:103e8000890440000a854800fe01900034000700c4
:103e90008b85e80038000700ee0190003000070035
:103ea0008e0990001b18b800890440000a8548005c
:103eb0000a98a30008003a000402420085824a00e2
:103ec00006034b0087834b0008044c0089844c0098
:103ed0000a054d008d06e900848272008502730098
:103ee0004c3add008502720001003200150020000e
:103ef000443ade001400b2004538de00cb45dd0058
:103f00000b007000c540de00cb4ddd008b807000e3
:103f10004549de00cb55dd000b017100c551de00c7
:103f20000d037800cdfe070003f0a1000cf0a70000
:103f300003f0a00009ff37001b18b80085024000fd
:103f400006834800e0834b0060044c000700370004
:103f50001b18b8000603400087834800faff3700ab
:103f60001b18b8008703400008844800e0844c0018
:103f700060054d00000006001b18b8000804400052
:103f800089844800faff37000108a300f0fe3a00d8
:103f90005800be005801be00e3ff37000008a30030
:103fa000ebfe3a0009047800f9ff3700889fbe0055
:103fb0008a9fbe008c1f7800f9f2070000f33300df
:103fc00003866c006450e100240032006420e100ac
:103fd000270032006150e100220032006120e10040
:103fe000210032008b854200eb07b1000134b8009c
:103ff000003ab8000804420089844a00013ab80037
:104000000030b8008880400009014a0004003300f5
:104010000000400081804800020149008b05e90052
:10402000c909dd0083017000010032001300200087
:10403000c814de004814dd004709de001200b2009b
:10404000c808de0008847000aff2070001f0a1008c
:104050000cf0a70001f0a000e2f237006120e100bf
:10406000e4f232000801be000200be00f7ff370094
:104070006150e100fcff3a00def2370007f0a200d9
:1040800090fd3700020ab900001bb9000200b80019
:10409000810042008100430000000600889fbe00ae
:1040a0008a9fbe008c9fbe000404be000605be00b1
:1040b000809fbe00829fbe002f000700040678008c
:1040c0000800be000a01be002b000700840678002d
:1040d0004f03be004f02be008d4f76007fb09700a9
:1040e00013003300f0ff2f008b8f6b0006003b00a6
:1040f0000d0666000c00a7000a00370007f0a600b6
:10410000100020000a003700880f5200898f5a00e3
:104110008a0f5b008b8f5b000300390010002000ca
:1041200001003e000000200007f0a7000000ea00a8
:104130004f06be004f05be004f04be000000060043
:10414000e48240001078a3000700320064024000bf
:104150001178a3003400be001401be000400320038
:104160000330a700000006003500be001501be00a8
:104170000330a0000000060005ff27000582610053
:10418000070032000428e10001003200240005008d
:104190000600070001003a0044000500040805007d
:1041a00002000700f9ff3a00140005006f82610069
:1041b0008102700085027100850272000000060015
:1041c000800078005002be005003be004439de007b
:1041d000f700b200f37f2000030161000900320004
:1041e0000218e10016003a00850172008301730095
:1041f000838173000008200015003a004000200071
:1042000013003700850172008301730083817300fe
:1042100005003a0004a8be0006a8be001000200059
:104220000b0037000201e9000402420085824a00c7
:1042300006034b0087834b000748a300f9ff3200b9
:104240000740a00004a8be0006a8be002000200071
:0c4250008000980092009800000006001a
:020000040000fa
:10425c00252d000032300000732000004c69000056
:10426c006e650000202500002d3500006420000044
:10427c00257300000d0a000000530000686f000059
:10428c00756c0000642000006f6600002062000066
:10429c00656500006e2000007472000075650000fa
:1042ac0000530000686f0000756c00006420000073
:1042bc006f66000020620000656500006e20000043
:1042cc00666100006c73000065000000457800001a
:1042dc007065000063740000656400002025000018
:1042ec0064200000627500007420000077610000fb
:1042fc007320000025640000004500007870000069
:10430c00656300007465000064200000256c0000eb
:10431c0075200000627500007420000077610000b9
:10432c0073200000256c000075000000457800002b
:10433c0070650000637400006564000020250000b7
:10434c006620000062750000742000007761000098
:10435c007320000025660000004500007870000006
:10436c006563000074650000642000002573000084
:10437c00206200007574000020770000617300005b
:10438c0020250000730000004578000070650000d7
:10439c006374000065640000202500007320000099
:1043ac00746f0000206500006e6400002077000030
:1043bc0069740000682000002573000000450000af
:1043cc0078700000656300007465000064200000d4
:1043dc0025730000207400006f200000737400002f
:1043ec00617200007420000077690000746800009e
:1043fc002025000073000000457800007065000067
:10440c006374000065640000202500007320000028
:10441c00746f00002062000065200000696e0000cf
:10442c002025000073000000457800007065000036
:10443c0063740000656400002025000073200000f8
:10444c006e6f000074200000746f00002068000084
:10445c0061760000652000002573000020690000d3
:10446c006e2000006974000000200000257300001d
:10447c00200000000d0000002564000020720000e8
:10448c00756e0000202000002564000020660000ee
:10449c00616900006c65000064000000302e0000b3
:1044ac00350000000d0a00000d0a00003d3d000023
:1044bc003d3d00003d3d00003d3d00003d3d000008
:1044cc003d3d00003d3d00003d3d00003d3d0000f8
:1044dc005345000041540000455300005420000097
:1044ec0076250000733d00003d3d00003d3d000081
:1044fc003d3d00003d3d00003d3d00003d3d0000c8
:10450c003d3d00003d3d00003d3d00003d0d0000e7
:10451c000a0d00000a0000002020000020200000ee
:10452c00202000002020000020200000202000007f
:10453c00202000002020000020200000202000006f
:10454c002020000046610000696c000065640000da
:10455c000d00000020200000202000002020000082
:10456c00202000002020000020200000202000003f
:10457c00204100004c4c000020540000455300002a
:10458c0054530000205000004153000053450000dc
:10459c00440d00000020000020200000202000001e
:1045ac0020200000202000002020000020200000ff
:1045bc002020000020200000256400002074000052
:1045cc00657300007473000020720000756e0000ab
:1045dc000d0a000000200000202000002020000018
:1045ec0020200000202000002020000020200000bf
:1045fc002020000020200000202000002069000066
:10460c006e200000256c0000752000006d7300000a
:10461c000d0a0000003d00003d3d00003d3d000046
:10462c003d3d00003d3d00003d3d00003d3d000096
:10463c003d3d00003d3d00003d3d00003d3d000086
:10464c003d3d00003d3d00003d3d00003d3d000076
:10465c003d3d00003d3d00003d3d00003d3d000066
:10466c003d3d00003d3d00003d3d00003d3d000056
:10467c003d3d00003d3d00003d0d000000000000f0
:10468c00fe04000078ff0000be2c000004000000b7
:10469c0001010000a84e0000fe250000c8ff00002c
:1046ac00be27000000000000000000000000000019
:1046bc0000000000000000000000000000000000ee
:1046cc00000000008048000024420000410e000061
:1046dc00a3c200008f620000cd4300000000000068
:1046ec001000000001010000000000000114000097
:1046fc0065fe000003e10000ffbe00002f0100007a
:10470c000100000074310000fe170000fdff0000e6
:10471c00be17000000500000c3470000010100005c
:10472c00474e0000445f000041420000535f000010
:10473c0050520000455300005300000000000000e0
:10474c0009440000ac3200007c89000000ed000040
:10475c00d96800007700000000000000590000003c
:10476c0000000000000000000000000000d6000067
:10477c009fdc0000a818000017aa0000904300005e
:10478c0073270000f6b9000068ed0000f4de0000ad
:10479c00d4090000fee600001c1c000084dd0000b3
:1047ac00e80b000099290000274e000000000000d3
:1047bc00000f0000030000000000000000000000db
:1047cc0099b70000335200007694000015000000e9
:1047dc00f37c000000000000261400009e980000ee
:1047ec008f000000000000006a310000168f0000ee
:1047fc008c05000096000000e7b700003f36000073
:10480c0000000000000000000000000000af0000ed
:10481c00669e0000d03800005d8a00006c2000000d
:10482c00b9540000220000007ced0000044c000094
:10483c008038000074860000edcb0000fa570000b1
:10484c00cbdc000019e200002e1d0000df5500003b
:10485c0006e50000cb010000c36d0000a8b5000008
:10486c000000000000000000000000009ab20000f0
:10487c0000860000dbd00000bc54000016130000c2
:10488c0015860000004e000044bd00007f9a000019
:10489c001515000090010000ea490000b516000053
:1048ac0053a700008aea0000f02f0000bd3400007e
:1048bc00aee50000550000000048000000000000bc
:1048cc000000000000000000470000000000000095
:1048dc000000000000860000cd0000000000000079
:1048ec0000000000000000000000000000000000bc
:1048fc0000000000000000000000000000000000ac
:10490c00000000000000000000000000000000009b
:10491c00000000000000000000000000000000008b
:10492c00000000000000000000000000000000007b
:10493c000000000000080000cc310000aa2c000090
:10494c00532e000000000000686500006c6c000035
:10495c006f200000776f0000726c00006421000073
:10496c0000680000656c00006c6f000000670000c0
:10497c006f6f000064620000796500000021000088
:10498c0000680000656c00006c000000757400008d
:10499c0065730000747300002f7500006e690000d1
:1049ac00742e000063000000746500007374000036
:1049bc005f650000786100006d7000006c650000a0
:1049cc000074000065730000745f000065780000df
:1049dc00616d0000706c0000650000005465000003
:1049ec006d7000003a200000256400002e250000a8
:1049fc002e32000075200000433b000020200000f8
:104a0c002050000072650000733a00002025000061
:104a1c00752e0000252e000032750000206d000060
:104a2c0042610000722000000d0a0000000d000021
:104a3c000a00000000250000642e0000252e000056
:104a4c00327500002573000000000000496e000064
:104a5c00766100006c690000640000004c6f00007f
:104a6c0063610000746900006f6e00000047000075
:104a7c00505200004d4300002c000000556e000009
:104a8c006b6e00006f7700006e0000000a0d0000d6
:104a9c00000000002573000020250000732000009a
:104aac002573000000000000582000003d2000008d
:104abc00256400003b200000592000003d20000030
:104acc00256400003b2000005a2000003d2000001f
:0c4adc00256400003b0a00000d000000f3
:020000040000fa
:104ae8000000fa000002eb00040078000080fa00e1
:104af800000006000000fa000080fa00000006002e
:104b08000200fa00000f78001e027800147788006f
:104b18000080fa00000006000200fa00000f78008a
:104b28001e027800247788000080fa000000060042
:104b38000000fa0014778000e00f520002003200f3
:104b480014778000040001000080fa0000000600cd
:104b58000000fa0024778000e00f520002003200c3
:104b680024778000040001000080fa00000006009d
:104b78000200fa00000f78001e02780034778800df
:104b88000080fa00000006000200fa00000f78001a
:104b98001e027800447788000080fa0000000600b2
:104ba8000000fa0034778000e00f52000200320063
:104bb80034778000040001000080fa00000006003d
:104bc8000000fa0044778000e00f52000200320033
:104bd80044778000040001000080fa00000006000d
:104be8000400fa00100798001e00900019f307004f
:104bf800000278009e029000048f420001003700f6
:104c08001e0fe9001e0290009e027800848f520059
:104c1800050032001e02780094427800c4c5b30033
:104c280084cf5200f6ff3a001e02780094427800c2
:104c3800c4c5b30084cf520001003a001e0fe8003b
:104c48001e027800040078000080fa0000000600c8
:104c58000800fa00000f7800110798002207980052
:104c6800330798001e027800e00f52000e003a0049
:104c78001e029000841f78003e029000841f780076
:104c88002e029000841f7800e4122a00841f780006
:104c9800fbf90700e8875700f47680000402e80073
:104ca800f476880003003700e47680000402e80008
:104cb800e47688000080fa00000006000600fa008a
:104cc800000f78001107980022079800ae019000a5
:104cd8001e01900031142a001e007800dcff070036
:104ce8000080fa00000006000600fa00000f7800b5
:104cf80011079800220798001e02780004f0a70008
:104d08000402ea000402e9004f22de00ae0190002e
:104d18001e01900071152a0004007800ccff0700de
:104d28000080fa00000006000808fa00048020004d
:104d380004024700000a780024802000040247008b
:104d4800010a78004480200004024700020a780023
:104d58006480200004024700030a780024802000b1
:104d680004024700941f78000480200004024700d2
:104d7800941f7800c4162a00841f78000e0078005b
:104d8800f5f20700e68757000480200084024700f8
:104d980024802000040247001503780014026b00e9
:104da80004f0a7000402ea000402e9004f22de0032
:104db80065802000050347004580200085024700e4
:104dc80096017800150178008e00780004007800bc
:104dd8009fff07000080fa00000006000c08fa0098
:104de8000680200006034700008bbe004680200096
:104df80006034700028bbe0086802000060347009a
:104e0800040b7800a480200004024700050a7800fb
:104e180044802000040247001402be00849fbe00a4
:104e280004802000040247001402be00849fbe00d4
:104e380034182a00841f78000e007800c6f2070094
:104e4800ea875700048020000402470045802000bc
:104e5800050347001402be0036016a00a6816a00f5
:104e68000202be0085017800848171000302780087
:104e780004f0a7000402ea000402e9004f22de0061
:104e8800a580200005034700858020008502470093
:104e980096017800150178008e00780004007800eb
:104ea8006bff07000080fa00000006001408fa00f3
:104eb800881f78004880200008044700008cbe0046
:104ec80080802000000047000288be00c0802000cb
:104ed800000047000488be00048120000402470047
:104ee800060a78002481200004024700070a780097
:104ef8004480200004024700858020008502470086
:104f08001501be001400be0049ee07000002be00f5
:104f1800048fbe0064034700848020000402470019
:104f28001402be00849fbe00448020000402470093
:104f38001402be00849fbe00c4192a00841f780092
:104f48000600780084f20700ea87570018c0b3000b
:104f58006011b8001e00be00e4ee070000027800f1
:104f6800e00f5200010035000044eb00e04f540010
:104f7800050032001e01be006000b8002cee0700dc
:104f88000002be00048fbe00c48020000402470057
:104f9800180020001401be001e00be00d3ee07005a
:104fa80000027800e00f5200010034000004eb001a
:104fb8002481200004034700048120008402470064
:104fc8006402470096017800150178008400780093
:104fd800080078001eff07004f0478000080fa00e0
:104fe800000006001408fa00881f78004880200096
:104ff80008044700008cbe008080200000004700a5
:105008000288be00c0802000000047000488be005f
:105018000481200004024700060a78002481200049
:1050280004024700070a7800448020000402470071
:1050380085802000850247001501be001400be00cf
:10504800fbed07000002be00048fbe0064034700aa
:1050580084802000040247001402be00849fbe0022
:1050680044802000040247001402be00849fbe0052
:10507800c4192a00841f78000600780036f2070059
:10508800ea87570018c0b3006011b8001e00be00c0
:1050980096ee070000027800e00f5200010035008c
:1050a8000044eb00e04f5400050032001e01be0032
:1050b8006000b800deed07000002be00048fbe00ed
:1050c800c480200004024700180020001401be001c
:1050d8001e00be0085ee070000027800e00f5200b7
:1050e800010034000004eb00248120000403470081
:1050f800048120008402470064024700960178007a
:10510800150178008400780008007800d0fe0700b8
:105118004f0478000080fa00000006000808fa0032
:105128000480200004024700000a78002480200040
:1051380004024700010a7800448020000402470066
:10514800020a78006480200004024700030a7800fd
:105158002480200004024700941f78000480200067
:1051680004024700941f7800341b2a00841f78002b
:105178000e007800f8f10700e68757002480200029
:10518800840247000480200004024700950078004c
:1051980014007800a8f107000002780004f0a700c6
:1051a8000402ea000402e9004f22de0065802000c4
:1051b80005034700458020008502470096017800d6
:1051c800150178008e00780004007800a0fe070022
:1051d8000080fa00000006000808fa00881f78001e
:1051e8000480200004024700000a78002480200080
:1051f80004024700010a78004480200004024700a6
:10520800020a78006480200004024700030a78003c
:105218000480200004024700941f780024802000a6
:1052280004024700941f7800a41c2a00841f7800f9
:105238000e007800c8f10700e68757002480200098
:10524800040247001400780082f107000004780087
:105258000480200004024700140078007df1070054
:1052680000027800040254002580200085024700cf
:10527800150242000580200085024700840078005e
:10528800150078006cf107000002780004f0a70010
:105298000402ea000402e9004f22de0065802000d3
:1052a80005034700458020008502470096017800e5
:1052b800150178008e0078000400780064fe07006d
:1052c8004f0478000080fa00000006000808fa0081
:1052d8000480200004024700000a7800248020008f
:1052e80004024700010a78004480200004024700b5
:1052f800020a78006480200004024700030a78004c
:105308000480200004024700941f780024802000b5
:1053180004024700941f7800541e2a00841f780056
:105328000e0078008cf10700e68757000480200003
:10533800040247001400780046f1070000027800d4
:1053480025802000050347000580200085024700ce
:1053580004017800960078001500780044f10700f1
:105368000002780004f0a7000402ea000402e90041
:105378004f22de006580200005034700458020009d
:105388008502470096017800150178008e007800a4
:10539800040078002efe07000080fa0000000600d6
:1053a8000808fa000480200004024700000a780078
:1053b8002480200004024700010a7800448020006d
:1053c80004024700020a78006480200004024700b3
:1053d800030a78002480200004024700941f780004
:1053e8000480200004024700941f780024202a002b
:1053f800841f78000e00780057f10700e6875700f1
:105408000480200084024700248020000402470012
:10541800950078001400780026f107000002780053
:1054280004f0a7000402ea000402ea004f22de00aa
:10543800658020000503470045802000850247005d
:1054480096017800150178008e0078000400780035
:10545800fffd07000080fa00000006000808fa00b7
:105468000480200004024700000a780024802000fd
:1054780004024700010a7800448020000402470023
:10548800020a78006480200004024700030a7800ba
:105498000480200004024700941f78002480200024
:1054a80004024700941f7800a4212a00841f780072
:1054b8000e00780028f10700e687570004802000d6
:1054c80084024700248020000402470095007800e9
:1054d80014007800f7f007000002780004f0a70035
:1054e8000402ea000402e9004f22de006580200081
:1054f8000503470045802000850247009601780093
:10550800150178008e00780004007800d0fd0700af
:105518000080fa00000006000000fa00d47680003f
:105528000402e800d47688000080fa000000060033
:105538000c00fa003007980041079800224f9800a5
:105548003e009000c3f0070000027800140798009e
:10555800e5ff2f001e029000848252004e02900048
:105568008482420024002000110009008402d8002f
:1055780000027800240798000002eb00040f78006e
:10558800050037002e4a90000402fb000400780052
:10559800e0f007001e0fe8002e0290009e0278003f
:1055a800848f5200f7ff35003e029000841f780078
:1055b800b4232a00841f7800b1f70700e487570056
:1055c800ae0290001e02900004824200048fe800a0
:1055d800050037002e4a90000402fb000400780002
:1055e800ccf007001e0fe8004e0290009e027800e3
:1055f800848f5200f7ff350000242a0084f007004a
:105608000080fa00000006000200fa00000f78008f
:105618001e00780072fd07000002780004778800f9
:1056280004778000d2c2b300210320000400780070
:10563800bfff0700f476800064778800d476800086
:10564800547788000002eb00447788000002eb00e2
:10565800347788000080fa00000006000008fa008d
:10566800f57680006477800084825200d6768000c8
:105678005477800004025300851f7800841f780047
:1056880024242a00841f78000e007800b2f0070056
:10569800e687570002c2b300210320000e007800fd
:1056a800a3ff070000242a0059f007000080fa0031
:1056b800000006000200fa00000f78001e027800c1
:1056c800747788000080fa00000006000200fa00e3
:1056d800000f78001e027800847788000080fa00a6
:1056e800000006000600fa0010079800210798003d
:1056f80014002000040f780074778000e00f520037
:105708000e003200747780000400780051f0070022
:105718008002780074778000050178009e00900070
:105728000400780052f0070000027800e00f5200f1
:10573800020032000002eb00040f7800847780003a
:10574800e00f52000e0032008477800004007800d9
:1057580040f0070080027800847780000501780017
:10576800ae0090000400780041f0070000027800c5
:10577800e00f5200020032000002eb00040f780034
:105788001e027800040078000080fa00000006007d
:105798000a00fa0040079800d1fc070000027800d0
:1057a80005002000048fbe004e0290000400010096
:1057b800cbfc0700000278000500200024079800b1
:1057c8003507980044252a00841f780084252a007c
:1057d800841f78002af70700e4875700f4768000d2
:1057e800e00f52000300340020292a0008f00700c7
:1057f80002003700002b2a0005f00700d47680004d
:10580800841f7800142d2a00841f78001cf70700d5
:10581800e48757002e029000be0290003e0352001b
:10582800ae835a000602be00849fbe00142f2a00d1
:10583800841f780012f70700e687570010312a0006
:10584800f3ef0700abfc0700f476800004f0a70034
:105858000402ea000402e9004f22de000400780096
:105868000080fa00000006000600fa0020479800b1
:10587800210798002e029000844278002e42900062
:1058880004cf6a009e4278000582fb004422dd00b6
:10589800844278001e42780004c26a00044f7800ef
:1058a8002e029000c822de001e4378000682fb000c
:1058b8004822dd0084826a001e4378000682fb00cd
:1058c8004322dd0084826a001e4378000682fb00c2
:1058d8004422de00044278000482fb0004826a004d
:1058e800040078000080fa00000006000800fa00b2
:1058f80020079800614798006e429000e04f5200e0
:1059080002003a000082eb00170037000082eb002b
:10591800040f780014002000140798000c003700ca
:105928001e029000ae0290000482420014427800e9
:105938009e00780004407800cbff07000002780042
:10594800040f78001e0290000402e8001407980073
:105958006e4290008482fb001e029000848f5200e9
:10596800efff3c001e027800040078000080fa0077
:10597800000006000000fa000002eb000440880066
:10598800a4c0b300040078006ae9b7000210200040
:1059980021802000c0962000e0150700f2012000b9
:1059a800a1382a00609020007def07000042eb003c
:1059b8000400780008e9b70034ceb300040078008a
:1059c80009e9b700f4cbb300040078000ae9b7008e
:1059d800c200200061342a005092200070ef0700b6
:1059e8000042eb000400780027e9b70034ceb3008a
:1059f8000400780028e9b700f4cbb300040078006d
:105a080029e9b700c200200021352a0010932000a0
:105a180063ef07000042eb000400780033e9b700a9
:105a280034ceb3000400780034e9b700f4cbb300f7
:105a38000400780035e9b700b2002000f1372a00e9
:105a4800e095200056ef07000042eb0004007800c4
:105a580060e9b70034ceb3000400780061e9b7000c
:105a6800f4cbb3000400780062e9b7000080fa00c4
:105a7800000006000200fa00004f78000440800091
:105a8800e30f520002003600baff07003200370069
:105a9800c0962000b3150700004278000404a20055
:105aa800e04f5200270032009e407800c096200048
